:1000000088C7FF1FE596000039670100050500005D
:1000100045670100516701005D67010000000000B5
:1000200000000000000000000000000069670100FF
:1000300075670100000000004F040000231A000053
:10004000816701009D670100B9670100D567010064
:10005000F16701000D680100296801004568010091
:10006000616801007D68010099680100B5680100C0
:10007000D1680100ED6801000969010025690100EE
:10008000416901005D69010079690100956901001C
:10009000B1690100CD690100E9690100056A01004B
:1000A000216A01003D6A0100596A0100756A010078
:1000B000916A0100AD6A0100C96A0100E56A0100A8
:1000C000016B0100216B0100416B0100616B0100BC
:1000D000816B0100A16B0100C16B0100E16B0100AC
:1000E000016C0100216C0100416C0100616C010098
:1000F000816C0100A16C0100C16C0100E16C010088
:10010000016D0100216D0100416D0100616D010073
:10011000816D0100A16D0100C16D0100E16D010063
:10012000016E0100216E0100416E0100616E01004F
:10013000816E0100A16E0100C16E0100E16E01003F
:10014000016F0100216F0100416F0100616F01002B
:10015000816F0100A16F0100C16F0100E16F01001B
:100160000170010021700100417001006170010007
:1001700081700100A1700100C1700100E1700100F7
:1001800001710100217101004171010061710100E3
:1001900081710100A1710100C1710100E1710100D3
:1001A00001720100217201004172010061720100BF
:1001B00081720100A1720100C1720100E1720100AF
:1001C000017301002173010041730100617301009B
:1001D00081730100A1730100C1730100E17301008B
:1001E0000174010021740100417401006174010077
:1001F00081740100A1740100C1740100E174010067
:100200000175010021750100417501006175010052
:1002100081750100A1750100C1750100E175010042
:10022000017601002176010041760100617601002E
:1002300081760100A1760100C1760100E17601001E
:10024000A4970000A4970000A4970000A4970000C2
:10025000A4970000A4970000A4970000A4970000B2
:10026000A4970000A4970000A4970000A4970000A2
:10027000A4970000A4970000A4970000A497000092
:10028000000000000000000000000000000000006E
:10029000000000000000000000000000000000005E
:1002A000000000000000000000000000000000004E
:1002B000000000000000000000000000000000003E
:1002C000000000000000000000000000000000002E
:1002D000000000000000000000000000000000001E
:1002E000000000000000000000000000000000000E
:1002F00000000000000000000000000000000000FE
:1003000000000000000000000000000000000000ED
:1003100000000000000000000000000000000000DD
:1003200000000000000000000000000000000000CD
:1003300000000000000000000000000000000000BD
:1003400000000000000000000000000000000000AD
:10035000000000000000000000000000000000009D
:10036000000000000000000000000000000000008D
:10037000000000000000000000000000000000007D
:10038000000000000000000000000000000000006D
:10039000000000000000000000000000000000005D
:1003A000000000000000000000000000000000004D
:1003B000000000000000000000000000000000003D
:1003C000000000000000000000000000000000002D
:1003D000000000000000000000000000000000001D
:1003E000000000000000000000000000000000000D
:1003F00000000000000000000000000000000000FD
:10040000FFFFFFFFFFFEFFFFFFFFFFFFFFFFFFFFFD
:10041000FFFFFFFFFFFFFFFFFFFFFFFFFFFFFFFFEC
:10042000EFF3108072B6704780F310887047444A2B
:100430001368012B04D04FF001031360414A106090
:10044000414A116041484FF0805101607047EFF31D
:10045000108272B63A48016851B34FF00001016052
:100460003848016891B1EFF309811EF0100F08BF01
:1004700021ED108B21E9F00F4FF000041EF0100F5A
:1004800008BF012441F8044D006801602E49096845
:10049000096808C9B1E8F00F002B18BFB1EC108B48
:1004A00081F309884EF0100E002B18BF2EF0100EAD
:1004B00082F310884EF0040E704723490860EFF372
:1004C000148222F0040282F314881E494FF00000C7
:1004D00008601B494FF0010008601D481D49D0F815
:1004E000002041EA0201016018484FF0805101608C
:1004F00019480068006800BF80F3088861B662B6DA
:10050000704700BFEFF308801EF0040F01D0EFF337
:10051000098020E9F00F40F804ED40F804ED1EF0EA
:10052000040F02D080F3098801E080F3088800B549
:1005300020F090F85DF804EB4EF0040E70470000D8
:1005400034A9FF1F2CA9FF1F30A9FF1F04ED00E0F5
:1005500020ED00E00000FFFF08ED00E0844641EAE6
:10056000000313F003036DD1403A41D351F8043B2B
:1005700040F8043B51F8043B40F8043B51F8043B7D
:1005800040F8043B51F8043B40F8043B51F8043B6D
:1005900040F8043B51F8043B40F8043B51F8043B5D
:1005A00040F8043B51F8043B40F8043B51F8043B4D
:1005B00040F8043B51F8043B40F8043B51F8043B3D
:1005C00040F8043B51F8043B40F8043B51F8043B2D
:1005D00040F8043B51F8043B40F8043B51F8043B1D
:1005E00040F8043B51F8043B40F8043B403ABDD28C
:1005F000303211D351F8043B40F8043B51F8043B2E
:1006000040F8043B51F8043B40F8043B51F8043BEC
:1006100040F8043B103AEDD20C3205D351F8043BBC
:1006200040F8043B043AF9D2043208D0D2071CBF88
:1006300011F8013B00F8013B01D30B8803806046B1
:10064000704700BF082A13D38B078DD010F0030327
:100650008AD0C3F10403D21ADB071CBF11F8013B97
:1006600000F8013B80D331F8023B20F8023B7BE7E6
:10067000043AD9D3013A11F8013B00F8013BF9D211
:100680000B7803704B7843708B78837060467047AB
:10069000000000000000000000000000000000005A
:1006A000A2EB0300704700BF02780B78012A28BF35
:1006B0009A42F5D16DE9044540EA0104CDE90267AB
:1006C0006FF0000C4FEA447212B380EA010414F098
:1006D000070F6AD100F0070420F0070004F00305BB
:1006E00021F007014FEAC505F0E8042314F0040FD8
:1006F000F1E804670CFA05F462EA040266EA04060B
:100700000AD063EA0403624667EA0407664603E028
:10071000F0E80423F1E8046782FA4CF582EA060463
:10072000A4FA8CF46CBB83FA4CF583EA0705A5FAAE
:100730008CF595B950E9022351E9026782FA4CF52C
:1007400082EA0604A4FA8CF483FA4CF583EA0705DE
:10075000A5FA8CF52543DBD09CB92DBAB5FA85F402
:1007600024F0070427FA04F1DDE9026723FA04F311
:1007700003F0FF0001F0FF01FDE80445A0EB0100DC
:10078000704724BAB4FA84F424F0070426FA04F17A
:10079000DDE9026722FA04F202F0FF0001F0FF0136
:1007A000FDE80445A0EB0100704714F0030F3CD1B5
:1007B00010F0030428D150F8082B51F8083B82FAB6
:1007C0004CF582EA0305A5FA8CF55DB950F8042CC6
:1007D00051F8043C82FA4CF582EA0305A5FA8CF53F
:1007E000002DE8D02DBAB5FA85F424F0070423FAD9
:1007F00004F122FA04F202F0FF0001F0FF01FDE82B
:100800000445A0EB010070474FEAC40420F0030048
:1008100050F8082B21F0030151F8083B0CFA04F4BE
:1008200062EA040263EA0403C9E710F003041AD081
:10083000A1EB040120F00300E40750F8042B06D0DC
:100840000FD28B785FFAA2F4E41A06D12BB1CB78E1
:100850005FFAB2F4E41A00D11BB920465DF8104BE0
:10086000704701F1040150F8042BCC0721F003017B
:1008700051F8043B48D824D222F07F4482FA4CF548
:1008800094EA1325A5FA8CF50AD165B951F8043B11
:1008900084EA0204B4EB036F0ED150F8042BEBE7AB
:1008A0004FEA132355E035F07F454DD10878FDE838
:1008B0000445C0F1000070474FEA126203F0FF03E5
:1008C00047E002EA1C4482FA4CF594EA1345A5FA83
:1008D0008CF50AD165B951F8043B84EA0204B4EB03
:1008E000034F0CD150F8042BEBE74FEA134330E0F1
:1008F00015EA1C4528D10B884FEA124229E04FEA3D
:10090000124203EA1C4324E002F0FF0482FA4CF591
:1009100094EA1365A5FA8CF50AD165B951F8043B40
:1009200084EA0204B4EB032F09D150F8042BEBE75F
:100930004FEA13630DE015F0FF0F05D10B684FEA86
:10094000122223F07F4304E04FF00000FDE804454D
:10095000704712BA1BBA82FA4CF482EA0304A4FA72
:100960008CF5B5FA85F402FA04F203FA04F34FEABF
:100970001260FDE80445A0EB136070470000000022
:1009800090F800F06DE9024520F007016FF0000CCF
:1009900010F0070491F820F040F049804FF0000477
:1009A0006FF00700D1E9002391F840F000F1080052
:1009B00082FA4CF2A4FA8CF283FA4CF3A2FA8CF38A
:1009C0004BBBD1E9022382FA4CF200F10800A4FAF1
:1009D0008CF283FA4CF3A2FA8CF3E3B9D1E9042345
:1009E00082FA4CF200F10800A4FA8CF283FA4CF37C
:1009F000A2FA8CF37BB9D1E9062301F1200182FA36
:100A00004CF200F10800A4FA8CF283FA4CF3A2FA3B
:100A10008CF3002BC6D0002A04BF04301A4612BA49
:100A2000B2FA82F2FDE8024500EBD2007047D1E94C
:100A3000002304F00305C4F100004FEAC50514F0DB
:100A4000040F91F840F00CFA05F562EA05021CBFAC
:100A500063EA050362464FF00004A9E700000000C6
:100A600001F0FF01102A2BDB10F0070F08D010F85F
:100A7000013B013A8B422DD010F0070F42B3F6D163
:100A8000F0B441EA012141EA014122F007047FF07C
:100A900000070023F0E80256083C85EA010586EAD3
:100AA000010685FA47F5A3FA87F586FA47F6A5FA0F
:100AB00087F68EB9EED1F0BC01F0FF0102F007021B
:100AC00032B110F8013B013A83EA010313B1F8D1C6
:100AD0000020704701387047002D06BF35460338A7
:100AE000073815F0010F07D1013015F4807F02BFE0
:100AF000013015F4C03F0130F0BC0138704700BF31
:100B000081F0004102E000BF83F0004330B54FEABE
:100B100041044FEA430594EA050F08BF90EA020F2B
:100B20001FBF54EA000C55EA020C7FEA645C7FEABE
:100B3000655C00F0E2804FEA5454D4EB5555B8BFE1
:100B40006D420CDD2C4480EA020281EA030382EA52
:100B5000000083EA010180EA020281EA0303362DE4
:100B600088BF30BD11F0004F4FEA01314FF4801CB7
:100B70004CEA113102D0404261EB410113F0004FC9
:100B80004FEA03334CEA133302D0524263EB430380
:100B900094EA050F00F0A780A4F10104D5F1200E1E
:100BA0000DDB02FA0EFC22FA05F2801841F1000179
:100BB00003FA0EF2801843FA05F359410EE0A5F14D
:100BC00020050EF1200E012A03FA0EFC28BF4CF07E
:100BD000020C43FA05F3C01851EBE37101F0004534
:100BE00007D54FF0000EDCF1000C7EEB00006EEB41
:100BF0000101B1F5801F1BD3B1F5001F0CD34908CB
:100C00005FEA30004FEA3C0C04F101044FEA445221
:100C100012F5800F80F09A80BCF1004F08BF5FEAA8
:100C2000500C50F1000041EB045141EA050130BD88
:100C30005FEA4C0C404141EB0101013C28BFB1F59A
:100C4000801FE9D291F0000F04BF01460020B1FAE5
:100C500081F308BF2033A3F10B03B3F120020CDAB8
:100C60000C3208DD02F1140CC2F10C0201FA0CF096
:100C700021FA02F10CE002F11402D8BFC2F1200CFB
:100C800001FA02F120FA0CFCDCBF41EA0C019040B1
:100C9000E41AA2BF01EB0451294330BD6FEA0404FA
:100CA0001F3C1CDA0C340EDC04F11404C4F12002E5
:100CB00020FA04F001FA02F340EA030021FA04F3F7
:100CC00045EA030130BDC4F10C04C4F1200220FA4E
:100CD00002F001FA04F340EA0300294630BD21FA8C
:100CE00004F0294630BD94F0000F83F4801306BF52
:100CF00081F480110134013D4EE77FEA645C18BF46
:100D00007FEA655C29D094EA050F08BF90EA020FDC
:100D100005D054EA000C04BF1946104630BD91EAD4
:100D2000030F1EBF0021002030BD5FEA545C05D1D7
:100D30004000494128BF41F0004130BD14F5800416
:100D40003CBF01F5801130BD01F0004545F0FE418A
:100D500041F470014FF0000030BD7FEA645C1ABFBF
:100D6000194610467FEA655C1CBF0B46024650EAF6
:100D7000013406BF52EA033591EA030F41F4002122
:100D800030BD00BF90F0000F04BF0021704730B5A8
:100D90004FF4806404F132044FF000054FF000017D
:100DA00050E700BF90F0000F04BF0021704730B53E
:100DB0004FF4806404F1320410F0004548BF404213
:100DC0004FF000013EE700BF42004FEAE2014FEA68
:100DD00031014FEA02701FBF12F07F4393F07F4F43
:100DE00081F06051704732F07F4208BF704793F046
:100DF0007F4F04BF41F40021704730B54FF4607459
:100E000001F0004521F000411CE700BF50EA01025B
:100E100008BF704730B54FF000050AE050EA010204
:100E200008BF704730B511F0004502D5404261EB74
:100E300041014FF4806404F132045FEA915C3FF4B5
:100E4000D8AE4FF003025FEADC0C18BF03325FEA52
:100E5000DC0C18BF033202EBDC02C2F1200300FA03
:100E600003FC20FA02F001FA03FE40EA0E0021FA28
:100E700002F11444BDE600BF70B54FF0FF0C4CF416
:100E8000E06C1CEA11541DBF1CEA135594EA0C0FC8
:100E900095EA0C0F00F0DEF82C4481EA030621EA03
:100EA0004C5123EA4C5350EA013518BF52EA03353E
:100EB00041F4801143F4801338D0A0FB02CE4FF0F0
:100EC0000005E1FB02E506F00042E0FB03E54FF020
:100ED0000006E1FB03569CF0000F18BF4EF0010E18
:100EE000A4F1FF04B6F5007F64F5407404D25FEA14
:100EF0004E0E6D4146EB060642EAC62141EA5551C7
:100F00004FEAC52040EA5E504FEACE2EB4F1FD0C08
:100F100088BFBCF5E06F1ED8BEF1004F08BF5FEA86
:100F2000500E50F1000041EB045170BD06F0004638
:100F300046EA010140EA020081EA0301B4EB5C04E5
:100F4000C2BFD4EB0C0541EA045170BD41F48011DD
:100F50004FF0000E013C00F3AB8014F1360FDEBF02
:100F6000002001F0004170BDC4F10004203C35DADE
:100F70000C341BDC04F11404C4F1200500FA05F361
:100F800020FA04F001FA05F240EA020001F0004202
:100F900021F0004110EBD37021FA04F642EB060178
:100FA0005EEA430E08BF20EAD37070BDC4F10C04A2
:100FB000C4F1200500FA04F320FA05F001FA04F266
:100FC00040EA020001F0004110EBD37041F1000152
:100FD0005EEA430E08BF20EAD37070BDC4F120055D
:100FE00000FA05F24EEA020E20FA04F301FA05F2C5
:100FF00043EA020321FA04F001F0004121FA04F26D
:1010000020EA020000EBD3705EEA430E08BF20EA3C
:10101000D37070BD94F0000F0FD101F00046400076
:1010200041EB010111F4801F08BF013CF7D041EAF8
:10103000060195F0000F18BF704703F000465200FC
:1010400043EB030313F4801F08BF013DF7D043EACD
:101050000603704794EA0C0F0CEA135518BF95EA83
:101060000C0F0CD050EA410618BF52EA4306D1D10A
:1010700081EA030101F000414FF0000070BD50EA29
:10108000410606BF1046194652EA430619D094EAB3
:101090000C0F02D150EA013613D195EA0C0F05D19D
:1010A00052EA03361CBF104619460AD181EA0301F1
:1010B00001F0004141F0FE4141F470014FF00000A9
:1010C00070BD41F0FE4141F4780170BD70B54FF044
:1010D000FF0C4CF4E06C1CEA11541DBF1CEA1355C4
:1010E00094EA0C0F95EA0C0F00F0A7F8A4EB0504A6
:1010F00081EA030E52EA03354FEA013100F088809D
:101100004FEA03334FF0805545EA131343EA126365
:101110004FEA022245EA111545EA10654FEA00261A
:101120000EF000419D4208BF964244F1FD0404F5D3
:10113000407402D25B084FEA3202B61A65EB03052F
:101140005B084FEA32024FF480104FF4002CB6EBEC
:10115000020E75EB030E22BFB61A754640EA0C006C
:101160005B084FEA3202B6EB020E75EB030E22BFAC
:10117000B61A754640EA5C005B084FEA3202B6EBED
:10118000020E75EB030E22BFB61A754640EA9C00AC
:101190005B084FEA3202B6EB020E75EB030E22BF7C
:1011A000B61A754640EADC0055EA060E18D04FEA3A
:1011B000051545EA16754FEA06164FEAC30343EADA
:1011C00052734FEAC2025FEA1C1CC0D111F4801FA7
:1011D0000BD141EA00014FF000004FF0004CB6E7A0
:1011E00011F4801F04BF01430020B4F1FD0C88BF3F
:1011F000BCF5E06F3FF6AFAEB5EB030C04BFB6EB4A
:10120000020C5FEA500C50F1000041EB045170BD3C
:101210000EF0004E4EEA113114EB5C04C2BFD4EB69
:101220000C0541EA045170BD41F480114FF0000EED
:10123000013C90E645EA060E8DE60CEA135594EA69
:101240000C0F08BF95EA0C0F3FF43BAF94EA0C0F6C
:101250000AD150EA01347FF434AF95EA0C0F7FF4E1
:1012600025AF104619462CE795EA0C0F06D152EA35
:1012700003353FF4FDAE1046194622E750EA410619
:1012800018BF52EA43067FF4C5AE50EA41047FF42A
:101290000DAF52EA43057FF4EBAE12E74FF0FF3C8F
:1012A00006E000BF4FF0010C02E000BF4FF0010C60
:1012B0004DF804CD4FEA410C7FEA6C5C4FEA430CD9
:1012C00018BF7FEA6C5C1BD001B050EA410C0CBF28
:1012D00052EA430C91EA030F02BF90EA020F00208A
:1012E000704710F1000F91EA030F58BF994208BFF1
:1012F00090422CBFD8176FEAE37040F001007047AE
:101300004FEA410C7FEA6C5C02D150EA013C07D104
:101310004FEA430C7FEA6C5CD6D152EA033CD3D04F
:101320005DF8040B704700BF8446104662468C4649
:101330001946634600E000BF01B5FFF7B7FF00287C
:1013400048BF10F1000F01BD4DF808EDFFF7F4FFA5
:101350000CBF012000205DF808FB00BF4DF808ED30
:10136000FFF7EAFF34BF012000205DF808FB00BF53
:101370004DF808EDFFF7E0FF94BF012000205DF875
:1013800008FB00BF4DF808EDFFF7CEFF94BF01202A
:1013900000205DF808FB00BF4DF808EDFFF7C4FF23
:1013A00034BF012000205DF808FB00BF4FEA410C6C
:1013B0007FEA6C5C02D150EA013C0AD14FEA430C4F
:1013C0007FEA6C5C02D152EA033C02D14FF000008C
:1013D00070474FF0010070474FEA410212F50012CA
:1013E00015D211D56FF47873B3EB625212D94FEA6C
:1013F000C12343F0004343EA505311F0004F23FA56
:1014000002F018BF404270474FF00000704750EAAA
:10141000013005D111F0004008BF6FF00040704767
:101420004FF00000704700BF4A0011D212F50012C1
:1014300011D20DD56FF47873B3EB62520ED44FEA2C
:10144000C12343F0004343EA505323FA02F07047AC
:101450004FF00000704750EA013002D14FF0FF30EA
:1014600070474FF0000070474FEA4102B2F1E0438D
:1014700024BFB3F5001CDCF1FE5C0DD901F0004C7B
:101480004FEAC0024CEA5070B2F1004F40EB8300CB
:1014900008BF20F00100704711F0804F21D113F1F7
:1014A0003872BCBF01F00040704741F480114FEA30
:1014B0005252C2F11802C2F1200C10FA0CF320FAB9
:1014C00002F018BF40F001004FEAC1234FEAD323D6
:1014D00003FA0CFC40EA0C0023FA02F34FEA430340
:1014E000CCE77FEA625307D150EA01331EBF4FF0C9
:1014F000FE4040F44000704701F0004040F0FE40E4
:1015000040F40000704700BF7BB972B90029BEBF2C
:1015100000204FF0004106E008BF00281CBF6FF01C
:1015200000414FF0FF3000F0F5B9ADF1080C6DE966
:1015300004CE002909DB002B1ADB00F083F8DDF86C
:1015400004E0DDE9022304B07047404261EB410151
:10155000002B1BDB00F076F8DDF804E0DDE9022368
:1015600004B0404261EB4101524263EB43037047D8
:10157000524263EB430300F065F8DDF804E0DDE977
:10158000022304B0404261EB41017047524263EBD9
:10159000430300F057F8DDF804E0DDE9022304B06E
:1015A000524263EB4303704753B94AB9002908BF5D
:1015B00000281CBF4FF0FF314FF0FF3000F0AAB9F8
:1015C000ADF1080C6DE904CE00F03CF8DDF804E064
:1015D000DDE9022304B0704738B500220023044639
:1015E0000D46FFF7BBFE28B920462946BDE8384026
:1015F00000F00AB8204605F1004100F005F840422D
:1016000061EB410138BD00BFD0B50C4B002206464E
:101610000F46FFF731FCFFF707FF0446FFF7B2FB69
:10162000074B0022FFF728FC02460B46304639469E
:10163000FFF76AFAFFF7F8FE2146D0BD0000F03D43
:101640000000F0412DE9F047089D04468E46002B2E
:101650004DD18A42944669D9B2FA82F252B101FA66
:1016600002F3C2F1200120FA01F10CFA02FC41EA76
:10167000030E94404FEA1C48210CBEFBF8F61FFAFB
:101680008CF708FB16E341EA034306FB07F1994296
:101690000AD91CEB030306F1FF3080F01F81994249
:1016A00040F21C81023E63445B1AA4B2B3FBF8F023
:1016B00008FB103344EA034400FB07F7A7420AD9AA
:1016C0001CEB040400F1FF3380F00A81A74240F2D2
:1016D00007816444023840EA0640E41B00261DB13D
:1016E000D4400023C5E900433146BDE8F0878B4272
:1016F00009D9002D00F0EF800026C5E90001304631
:101700003146BDE8F087B3FA83F6002E4AD18B420A
:1017100002D3824200F2F980841A61EB03030120B4
:101720009E46002DE0D0C5E9004EDDE702B9FFDEA0
:10173000B2FA82F2002A40F09280A1EB0C014FEA4B
:101740001C471FFA8CFE0126200CB1FBF7F307FBA8
:10175000131140EA01410EFB03F0884208D91CEB4B
:10176000010103F1FF3802D2884200F2CB804346E8
:10177000091AA4B2B1FBF7F007FB101144EA0144C7
:101780000EFB00FEA64508D91CEB040400F1FF3156
:1017900002D2A64500F2BB800846A4EB0E0440EA44
:1017A00003409CE7C6F12007B34022FA07FC4CEA4D
:1017B000030C20FA07F401FA06F31C43F9404FEA40
:1017C0001C4900FA06F3B1FBF9F8200C1FFA8CFE55
:1017D00009FB181140EA014108FB0EF0884202FAA9
:1017E00006F20BD91CEB010108F1FF3A80F088806A
:1017F000884240F28580A8F102086144091AA4B227
:10180000B1FBF9F009FB101144EA014100FB0EFEA7
:101810008E4508D91CEB010100F1FF346CD28E45D6
:101820006AD90238614440EA0840A0FB0294A1EB67
:101830000E01A142C846A64656D353D05DB1B3EBC4
:10184000080261EB0E0101FA07F722FA06F3F140F4
:101850001F43C5E9007100263146BDE8F087C2F19B
:101860002003D8400CFA02FC21FA03F39140014313
:101870004FEA1C471FFA8CFEB3FBF7F007FB10364C
:101880000B0C43EA064300FB0EF69E4204FA02F4F8
:1018900008D91CEB030300F1FF382FD29E422DD94B
:1018A000023863449B1B89B2B3FBF7F607FB163380
:1018B00041EA034106FB0EF38B4208D91CEB010100
:1018C00006F1FF3816D28B4214D9023E6144C91A80
:1018D00046EA004638E72E46284605E70646E3E690
:1018E0001846F8E64B45A9D2B9EB020864EB0C0E9A
:1018F0000138A3E74646EAE7204694E74046D1E7A9
:10190000D0467BE7023B614432E7304609E7644456
:10191000023842E7704700BF80B58AB000AF07F1D8
:10192000200307220021184632F0F8FD07F11C03BE
:1019300003220021184632F0F1FD07F108031422BA
:101940000021184632F0EAFD3B46062200211846E7
:1019500032F0E4FD002387F82030012387F821309E
:10196000002387F82230012387F82330022387F8E9
:101970002430022387F82530012387F8263007F129
:101980002003184616F02EFB00237B770223BB773B
:1019900001233B7707F11C03184615F0B1FE012027
:1019A00015F0FEFE0F233B7001237B700123BB70FB
:1019B0003B46184614F00AFC18F028FE052018F0E3
:1019C0004DFE18F035FE0123BB6132237B610223FB
:1019D000BB600223FB6002233B61002015F06CFF1B
:1019E00007F10803184615F0A7FF012016F09EF82E
:1019F00000BF022016F00CFD0346012BF9D114F0B4
:101A0000B5FD052016F04EFA00BF2837BD4680BD53
:101A100080B500AFFFF780FF642014F06DFB00BFBE
:101A200080BD80B500AF1DF049FF1EF0FDFB1DF02D
:101A300065FF00BF80BD000080B582B000AF3B46AF
:101A400008220021184632F069FD01233B70012372
:101A5000BB7001233B712A4BB3F8B8349BB2284AC0
:101A6000C3F30E039BB2A2F8B834254BB3F8BC34D1
:101A70009BB2234AC3F30E039BB2A2F8BC340023EB
:101A800000224FF48041022019F006FD00230022BD
:101A90004FF40041022019F0FFFC3B461A464FF478
:101AA0000051022019F0CCFA3B461A464FF480410F
:101AB000022019F0C5FA3B461A464FF400410220B5
:101AC00019F0BEFA3B461A464FF48051002019F037
:101AD000B7FAFFF79DFF0B4BD3F88830094A43F460
:101AE0007003C2F88830084908481DF0F5F91DF068
:101AF000B7F807481AF0B6FC00BF0837BD4680BDEE
:101B00000038054000ED00E00000062088B7FF1F08
:101B100070DF030080B489B000AF7860154B9B681C
:101B2000FB61144B5B68BB61134B1B68134AA2FB40
:101B300003239B0C7B610F4B9B683B61FA693B69FC
:101B40009A4203D9FA693B69D31A04E0BA69FB697E
:101B50001A443B69D31AFB607B697A6802FB03F382
:101B6000FA689A42E7D300BF00BF2437BD465DF84C
:101B7000047B704710E000E00080FF1F83DE1B4302
:101B800080B500AF00F002F800BF80BD80B483B024
:101B900000AF0023FB711323BB7101237B71002372
:101BA0003B710023FB703C4B93F82630C3F30203D8
:101BB000DBB2FB71FB79052B68D801A252F823F048
:101BC000D91B0000E11B0000E91B0000F31B000013
:101BD000FB1B0000051C0000304B314A1A6055E029
:101BE0002E4B304A1A6051E02C4B4FF400421A60E1
:101BF0004CE02A4B2B4A1A6048E0284B4FF4004235
:101C00001A6043E0244BD3F80031C3F3C013DBB2B6
:101C1000FB70214BD3F80031C3F308239BB2BB7197
:101C20001D4BD3F80031C3F30373DBB27B711A4B46
:101C3000D3F80031C3F30403DBB23B71FB78002B14
:101C400010D13B7901331A46164BB3FBF2F3BA7944
:101C5000013202FB03F37A790132B3FBF2F30F4A4C
:101C6000136012E0FB78012B0FD13B7901331A4648
:101C70000B4BB3FBF2F3BA79013202FB03F37A792F
:101C80000132B3FBF2F3054A136000BF00BF0C370B
:101C9000BD465DF8047B7047004005400080FF1F93
:101CA0000024F40000127A0080B483B000AF034631
:101CB000FB80B7F90630002B0BDBFB8803F01F021B
:101CC0000749B7F906305B09012000FA02F241F832
:101CD000232000BF0C37BD465DF8047B704700BF72
:101CE00000E100E080B483B000AF0346FB80B7F9A9
:101CF0000630002B12DBFB8803F01F020A49B7F9FC
:101D000006305B09012000FA02F2203341F823205B
:101D1000BFF34F8F00BFBFF36F8F00BF00BF0C3703
:101D2000BD465DF8047B704700E100E080B586B0F9
:101D300000AF0346FB804FF0FF337B61FB88DBB2D3
:101D4000184617F0F9FA0346012B2ED1FB88DBB2B7
:101D5000184617F03DFBFB883B613B6993FAA3F300
:101D6000FB60FB68B3FA83F3DBB27B6111497A69EC
:101D700013465B0013449B000B4404331B68002B89
:101D800013D00C497A6913465B0013449B000B4443
:101D90000433196807487A6913465B0013449B00B3
:101DA000034408331B681846884700BF1837BD46F0
:101DB00080BD00BF4481FF1F80B500AF1DF07EFDD8
:101DC000044B1B881846FFF7B1FF1DF097FD00BFBD
:101DD00080BD00BF0480FF1F80B500AF1DF06EFD09
:101DE000044B9B8A1846FFF7A1FF1DF087FD00BF3B
:101DF00080BD00BF0480FF1F80B500AF1DF05EFDF9
:101E0000044B1B8D1846FFF791FF1DF077FD00BFB7
:101E100080BD00BF0480FF1F80B500AF1DF04EFDE8
:101E2000044B9B8F1846FFF781FF1DF067FD00BF35
:101E300080BD00BF0480FF1F80B500AF1DF03EFDD8
:101E4000044BB3F850301846FFF770FF1DF056FDF5
:101E500000BF80BD0480FF1F80B500AF1DF02EFDC8
:101E6000044BB3F864301846FFF760FF1DF046FDE1
:101E700000BF80BD0480FF1F80B500AF1DF01EFDB8
:101E8000044BB3F878301846FFF750FF1DF036FDCD
:101E900000BF80BD0480FF1F80B500AF1DF00EFDA8
:101EA000044BB3F88C301846FFF740FF1DF026FDB9
:101EB00000BF80BD0480FF1F80B500AF1DF0FEFC99
:101EC000044BB3F8A0301846FFF730FF1DF016FDA5
:101ED00000BF80BD0480FF1F80B500AF1DF0EEFC89
:101EE000044BB3F8B4301846FFF720FF1DF006FD91
:101EF00000BF80BD0480FF1F80B500AF1DF0DEFC79
:101F0000044BB3F8C8301846FFF710FF1DF0F6FC7D
:101F100000BF80BD0480FF1F80B500AF1DF0CEFC68
:101F2000044BB3F8DC301846FFF700FF1DF0E6FC69
:101F300000BF80BD0480FF1F80B500AF1DF0BEFC58
:101F4000044BB3F8F0301846FFF7F0FE1DF0D6FC56
:101F500000BF80BD0480FF1F80B500AF1DF0AEFC48
:101F6000044BB3F804311846FFF7E0FE1DF0C6FC41
:101F700000BF80BD0480FF1F80B500AF1DF09EFC38
:101F8000044BB3F818311846FFF7D0FE1DF0B6FC2D
:101F900000BF80BD0480FF1F80B500AF1DF08EFC28
:101FA000044BB3F82C311846FFF7C0FE1DF0A6FC19
:101FB00000BF80BD0480FF1F80B588B000AFF8600F
:101FC000B9607A604FF40043BB61BB6993FAA3F335
:101FD0007B617B69B3FA83F3DBB25033BA689A4210
:101FE0001DDCBB681B11DBB203F00F03FB77BB6882
:101FF000DBB203F00F03012202FA03F3BB837B6819
:10200000002B06D1BA8BFB7F1146184619F010FA47
:1020100005E0BA8BFB7F1146184619F0D5F900BFD1
:102020002037BD4680BD80B586B000AF786039608E
:1020300000237B614FF40043FB60FB6893FAA3F33A
:10204000BB60BB68B3FA83F3DBB250333A689A42A1
:102050001BDC3B681B11DBB203F00F03FB743B6816
:10206000DBB203F00F03012202FA03F33B823A8A48
:10207000FB7C1146184619F035F90346002B02D1B6
:1020800000237B6101E001237B617B6918461837DF
:10209000BD4680BD80B58AB000AFF860B9607A6097
:1020A0004FF400433B623B6A93FAA3F3FB61FB6985
:1020B000B3FA83F3DBB25033BA689A4256DC07F1C5
:1020C000140308220021184632F028FA7B68052BF9
:1020D0002CD801A252F823F0F1200000FB200000D0
:1020E000012100000B210000152100001F2100002C
:1020F00001233B750023BB7619E000233B7516E0F6
:1021000000233B7501233B7611E000233B75002340
:102110003B760CE001233B750123BB7607E00123EE
:102120003B7502237B760023BB7600E000BFBB68D3
:102130001B11DBB203F00F0387F82730BB68DBB25B
:1021400003F00F03012202FA03F3BB8407F1140228
:10215000B98C97F82730184618F072FFB98C97F8A9
:1021600027000023002219F097F900E000BF28376C
:10217000BD4680BD80B487B000AF0346FB710B46FF
:10218000BB8013467B80BB88FB60FB6893FAA3F39C
:10219000BB60BB68B3FA83F3DBB2FB82FA790B4B0B
:1021A00013441A01FB8A13449B003B617B8803F0B4
:1021B0000103D9B23A69138861F30C33138000BF6D
:1021C0001C37BD465DF8047B704700BFF01400016A
:1021D00080B588B000AFF860B9607A603B604FF0BE
:1021E000FF33FB614FF400437B617B6993FAA3F3F8
:1021F0003B613B69B3FA83F3DBB25033BA689A426E
:1022000002DD6FF0050383E0BB68DBB203F00F0370
:10221000FB61FB690F2B01D9062379E0FEF700F97A
:10222000B8613D49FA6913465B0013449B000B44B7
:10223000B3F900301A46BB68934229D13649FA698E
:1022400013465B0013449B000B4404331B683A683D
:102250009A421DD13049FA6913465B0013449B0032
:102260000B4402331B881A467B68934210D12A49DB
:10227000FA6913465B0013449B000B4408331B6848
:10228000BA6A9A4204D1B869FEF7CEF800233FE05B
:102290002149FA6913465B0013449B000B44B3F9D0
:1022A0000030B3F1FF3F04D0B869FEF7BDF8072353
:1022B0002EE0BB6818B21849FA6913465B00134454
:1022C0009B000B4402461A801349FA6913465B00CF
:1022D00013449B000B4404333A681A607B6898B23D
:1022E0000D49FA6913465B0013449B000B4402330B
:1022F00002461A800849FA6913465B0013449B00A2
:102300000B440833BA6A1A60B869FEF78DF80023E7
:1023100018462037BD4680BD4481FF1F80B586B07A
:1023200000AF786039604FF0FF337B614FF40043BA
:10233000FB60FB6893FAA3F3BB60BB68B3FA83F35B
:10234000DBB250333A689A4202DD6FF0050349E090
:102350003B68DBB203F00F037B617B690F2B01D974
:1023600006233FE0FEF75CF8386120497A6913469E
:102370005B0013449B000B44B3F90030B3F1FF3F03
:1023800004D13869FEF750F800232BE017497A6929
:1023900013465B0013449B000B444FF6FF721A80F8
:1023A00012497A6913465B0013449B000B440433C3
:1023B00000221A600D497A6913465B0013449B00A2
:1023C0000B44023300221A8008497A6913465B00E5
:1023D00013449B000B44083300221A603869FEF74F
:1023E00023F8002318461837BD4680BD4481FF1FDF
:1023F00080B58CB000AFF860B9607A604FF0FF3301
:10240000FB624FF40043FB61FB6993FAA3F3BB61EA
:10241000BB69B3FA83F3DBB25033BA689A4205DC86
:102420007B68012B05D07B68002B02D06FF0050381
:102430009DE0BB68DBB203F00F03FB62FB6A0F2B6E
:1024400001D9062393E0FA6A13469B0013449B00CC
:10245000494A1344BB62BB68DBB203F00F0301229D
:1024600002FA03F3FB847B68012B68D1FDF7D8FFE8
:1024700038624249FA6A13465B0013449B000B44DE
:10248000B3F90030B3F1FF3F04D1386AFDF7CCFF58
:1024900006236CE007F1140304220021184632F0F1
:1024A0003DF83649FA6A13465B0013449B000B441F
:1024B00002331B88042B19D801A252F823F000BF65
:1024C000D5240000DB240000E1240000ED240000FE
:1024D000E72400000123FB7508E00023FB7505E0FD
:1024E0000223FB7502E00323FB7500BFFB8CDBB20C
:1024F0003B7501237B750123BB7507F11403184657
:1025000016F0A4FEBB6A181DBB6A1B69002219469F
:1025100000F0F8F9BB6AB3F904301846FFF7C4FBC2
:10252000BB681B11DBB203F00F03DBB2F98C012295
:102530001846FFF71FFE386AFDF776FF16E0FDF735
:102540006FFF3862BB681B11DBB203F00F03DBB215
:10255000F98C00221846FFF70DFEBB6AB3F9043070
:102560001846FFF7BFFB386AFDF75EFF00231846E9
:102570003037BD4680BD00BF0480FF1F4481FF1F70
:1025800080B500AF00220349034821F04FFB03460A
:10259000184680BDD047040078DF030080B584B0C2
:1025A00000AF78607B681B68FB60FB681B880421B8
:1025B000184621F075FBFB685B880421184621F062
:1025C0006FFBFB681B880121184621F089FBFB6823
:1025D0005B880121184621F083FB00BF1037BD4600
:1025E00080BD80B584B000AF786039607B68FB60E7
:1025F0003B68002B06D0FB685B880121184621F060
:102600006FFB05E0FB685B880021184621F068FB42
:1026100000BF1037BD4680BD80B584B000AF786084
:1026200039607B68FB603B68002B06D0FB681B8829
:102630000121184621F054FB05E0FB681B880021AE
:10264000184621F04DFB00BF1037BD4680BD80B558
:1026500084B000AF78607B68FB60FB685B881846DD
:1026600021F05EFB034618461037BD4680BD80B59D
:1026700084B000AF78607B68FB60FB681B881846FD
:1026800021F04EFB034618461037BD4680BD80B58D
:1026900082B000AF78607868FFF73CFA00BF083777
:1026A000BD4680BD80B584B000AF78600023FB607C
:1026B0007B685B88184621F033FB0346002B11D161
:1026C0000BE07B681B880121184621F009FB7B6821
:1026D0001B880021184621F003FBFB685A1CFA6096
:1026E000082BEED97B685B88184621F019FB03465E
:1026F000002B01D1012300E0002318461037BD460E
:1027000080BD0000B0B584B000AF00211C2021F0D6
:10271000C7FA00211C2021F0E3FA0123BB6000234B
:10272000FB604FE02C4AFB68A82101FB03F3134434
:102730002A4A1C4615460FCD0FC495E80F0084E8C1
:102740000F00FB68DB00264A1A442349FB68A820D7
:1027500000FB03F30B441A60FB68A82202FB03F39F
:102760001D4A1A441C49FB68A82000FB03F30B44D4
:10277000A4331A60FB68A82202FB03F3164A134431
:102780001846FFF70BFFFB68A82202FB03F3203378
:10279000114A1344134A1146184621F0A9F97860EA
:1027A0007B68002B04D0C4220F49104819F090FE1A
:1027B000FB68DB000A4A13441846FFF773FFFB6807
:1027C0000133FB60FB68BA689A42ABD80023184615
:1027D0001037BD46B0BD00BF208DFF1FF447040079
:1027E000EC4704007CDF03001448040084DF03008E
:1027F00080B483B000AF0346FB80B7F90630002BEE
:102800000BDBFB8803F01F020749B7F906305B09B1
:10281000012000FA02F241F8232000BF0C37BD4628
:102820005DF8047B704700BF00E100E080B483B036
:1028300000AF0346FB80B7F90630002B12DBFB88A4
:1028400003F01F020A49B7F906305B09012000FABC
:1028500002F2203341F82320BFF34F8F00BFBFF3B4
:102860006F8F00BF00BF0C37BD465DF8047B70471B
:1028700000E100E080B483B000AF0346FB80B7F90D
:102880000630002B0CDBFB8803F01F020749B7F969
:1028900006305B09012000FA02F2603341F8232080
:1028A00000BF0C37BD465DF8047B704700E100E0D7
:1028B00080B483B000AF03463960FB80B7F90630BF
:1028C000002B0ADB3B68DAB20C49B7F9063012017B
:1028D000D2B20B4483F800230AE03B68DAB208491D
:1028E000FB8803F00F03043B1201D2B20B441A76AB
:1028F00000BF0C37BD465DF8047B704700E100E087
:1029000000ED00E080B588B000AFF860B9607A6093
:102910004FF0FF33FB61FB68002B04D131222249C9
:10292000224819F0D5FDBB68002B04D132221E4984
:102930001F4819F0CDFDFB68B3F90030FB82FB683E
:102940001B89BB82BB68BB6107F11403184613F0F7
:102950003BFEB7F916301846FFF78CFFB7F9162083
:10296000FB685B6819461046FFF7A2FF7B68012BE6
:1029700005D1B7F916301846FFF73AFF04E0B7F96A
:1029800016301846FFF752FF0023FB61FB69002B4E
:1029900004D044220449074819F09AFDFB691846FF
:1029A0002037BD4680BD00BF2848040098DF0300E3
:1029B000B0DF0300C4DF030080B483B000AF034680
:1029C000FB80B7F90630002B12DBFB8803F01F02F7
:1029D0000A49B7F906305B09012000FA02F22033F8
:1029E00041F82320BFF34F8F00BFBFF36F8F00BFAD
:1029F00000BF0C37BD465DF8047B704700E100E086
:102A000080B584B000AF78600223FB600023FB72C6
:102A100019E0FB7A114ADB0013445B687A689A423A
:102A20000ED1FB7A0D4A52F83330FB60FB68012B64
:102A30000DD940F201120A490A4819F049FD06E091
:102A4000FB7A0133FB72FB7A012BE2D900E000BF75
:102A5000FB6818461037BD4680BD00BF44480400DF
:102A600098480400E8DF030090B589B000AF7860B3
:102A700039600023FB77714A07F1080307CA03C3D3
:102A80001A703B685B7903F00103DBB2002B02D1C3
:102A90000023FB7201E00123FB723B681B79C3F347
:102AA0000113DBB2002B02D0012B03D005E0002381
:102AB0003B7305E001233B7302E000233B7300BF3F
:102AC0003B681B79C3F38113DBB2022B09D0022BC5
:102AD0000DDC002B02D0012B06D008E000237B7315
:102AE00008E001237B7305E002237B7302E00023EF
:102AF0007B7300BF3B681B79C3F30303DBB2082B76
:102B000006D10023BB7200BF3B68002B09D102E055
:102B10004FF0FF338EE04FF4A7724949494819F04E
:102B2000D7FC7B68002B05D140F24F124449464840
:102B300019F0CEFC7B68BB61BB699B6E002B05D195
:102B40004FF4A9723E49414819F0C2FCBB699B6E23
:102B5000184601F0C5F90346002B02D04FF0FF33B1
:102B600068E04FF070637B610121786913F050FCDD
:102B7000BB699B6E07F108021146184617F0C4F9AD
:102B80000346FB77FB7F002B02D04FF0FF3351E071
:102B9000BB699B6E4FF4E131184613F05DF90346B3
:102BA000FB77FB7F002B02D04FF0FF3342E0BB6985
:102BB00003F16C04BB699B6E1846FFF721FF0246C8
:102BC000234913465B001344DB000B441B680122BE
:102BD00019462046FFF796FEBB699B6E0122012134
:102BE000184617F0B7FB7B68DB8A03F00303002B62
:102BF00005D17B68DB8A03F00103002B06D0BB699B
:102C00009B6E01220021184617F0A4FB7B68DB8A2B
:102C100003F00303002B05D17B68DB8A03F002037A
:102C2000002B06D0BB699B6E01220221184617F0CB
:102C300091FB002318462437BD4690BD40E00300B9
:102C4000AC48040000E0030010E0030024E00300AF
:102C50005448040080B588B000AFF860B9607A606D
:102C60007B68FB61FB68002B05D140F28912654946
:102C7000654819F02DFCFB68BB61BB699B6E002B9E
:102C800005D14FF4C6725F49604819F021FCBB685A
:102C9000033B0E2B00F2B08001A252F823F000BFDC
:102CA0008D2D0000EB2D0000F92D0000F92D000006
:102CB000F92D0000F92D0000F92D0000F92D00007C
:102CC000F92D0000F92D0000F92D0000F92D00006C
:102CD000F92D0000272D0000DD2C0000FB69B3F565
:102CE000807F0CD1BB69B3F978301846FFF764FEDA
:102CF000BB69B3F97830184613F0CCFC7CE0BB69B3
:102D0000B3F984301846FFF757FEBB699B6E00226B
:102D10000721184617F01EFBBB69B3F9843018462B
:102D200013F0B8FC68E0BB699B6E1846FFF768FEBD
:102D30007861FB69B3F5807F10D1BB6903F178003E
:102D400033497A6913465B001344DB000B440433B8
:102D50001B6801221946FFF7D5FD4DE0BB699B6E4C
:102D600001220321184617F0F5FABB6903F184002C
:102D700027497A6913465B001344DB000B44083390
:102D80001B6801221946FFF7BDFD35E0F969F868B7
:102D900000F0B8FAFB69B3F5006F2CD1BB699B6EEC
:102DA00000220221184617F0D5FABB699B6E00225B
:102DB0000721184617F0CEFABB699B6E1846FFF73D
:102DC0001FFE7861BB69D3F8983003F10C001049FD
:102DD0007A6913465B001344DB000B440C331B6819
:102DE00001221946FFF78EFD05E0BB699B6E184670
:102DF00017F0CCF900E000BF002318462037BD468D
:102E000080BD00BFBC48040010E0030024E00300C4
:102E10005448040080B584B000AF78600B46FB7066
:102E20007B68002B05D140F2D7121C491C4819F0D1
:102E30004FFB7B68FB60FB689B6E002B05D14FF45A
:102E4000ED721649174819F043FB7B681B8B03F49E
:102E50008063002B0BD0FB689B6E8021184617F017
:102E6000CFF90346012B0CD04FF0FF3312E000BF27
:102E7000FB689B6E8021184617F0C2F90346012BB0
:102E8000F6D1FB689B6EFA7892B21146184617F09D
:102E90005DFB012318461037BD4680BDCC480400B9
:102EA00010E0030024E0030080B584B000AF786038
:102EB0004FF0FF33FB60184B1B680133164A136059
:102EC0007B68002B05D14FF4FA721449144819F0AD
:102ED000FFFA7B68BB60BB689B6E002B05D14FF48B
:102EE000FB720E490F4819F0F3FABB689B6E202164
:102EF000184617F085F90346012B07D1BB689B6E76
:102F0000184617F057FB0346DBB2FB60FB68184618
:102F10001037BD4680BD00BFC88DFF1FD8480400D4
:102F200010E0030024E0030080B588B000AFF86033
:102F3000B9607A603B60FB68002B05D140F20B2240
:102F40003149324819F0C4FABB68002B05D14FF45F
:102F500003722D492E4819F0BBFA7B68002B01D172
:102F600000234CE0FB68FB613B68022B46D1FB6908
:102F7000D3F898301B68BB61FB69D3F898305B6865
:102F8000FB75FB699B6E4021184617F039F9034623
:102F9000002B05D14FF407721B491E4819F098FA0F
:102FA000BA68FB7D1946B86915F02CFD7B689AB2AA
:102FB000FB7D1946B86915F081FDFB7D012219469C
:102FC000B86915F0CDFBFB7D02221946B86915F0F2
:102FD00039FB01214FF4003013F0D6F9FB699B6EE9
:102FE00001220221184617F0B5F9FB699B6E0122F8
:102FF0000721184617F0AEF97B6800E00023184659
:103000002037BD4680BD00BFE448040010E0030047
:103010004CE003005CE0030080B582B000AF786054
:103020007B68002B05D140F233220649064819F08F
:103030004FFA7B680121184622F010F900BF0837CB
:10304000BD4680BDF848040060E0030080B582B052
:1030500000AF78607B68002B05D140F23A22094925
:10306000094819F035FA7B681B8B03F48063002B49
:1030700004D07B680221184622F0F0F800BF083720
:10308000BD4680BD1449040060E0030090B583B0E4
:1030900000AF78607B68002B05D14FF41172304986
:1030A000304819F015FA7B689B6E002B05D140F271
:1030B00045222B492C4819F00BFA7B689B6E0121A5
:1030C000184617F09DF80346012B05D17B689B6ECF
:1030D0000121184617F0E4F87B689B6E0221184620
:1030E00017F08EF80346012B05D17B689B6E0221F9
:1030F000184617F0D5F87B689B6E0821184617F024
:103100007FF80346012B05D17B689B6E082118468A
:1031100017F0C6F87B689B6E0121184617F070F80F
:103120000346012B0CBF01230023DCB27B689B6E9E
:103130000121184617F064F80346012B0CBF012348
:103140000023DBB22343DBB2002B04D07B689B6EF1
:10315000184617F02FFA00BF0C37BD4690BD00BFD0
:103160003049040060E0030024E0030090B595B00E
:1031700000AF78607B68002B05D140F267225C4984
:103180005C4819F0A5F97B68BB64BB6C9B6E002B97
:1031900005D140F26A225649574819F099F9BB6C9B
:1031A000D3F890301B687B64BB6CD3F890305B68BD
:1031B00087F84330BB6CD3F890309B68FB6307F112
:1031C0001C0320220021184631F0A8F907F114034E
:1031D00006220021184631F0A1F907F10C0308225C
:1031E0000021184631F09AF90121012013F04AF923
:1031F00000220021786C16F0C5FA00220121786CBB
:1032000016F0C0FA0023FB7500237B7503233B7582
:103210003B7D002B03D1FB6B043BFB640DE03B7D4E
:10322000012B04D1FB6B5B08023BFB6405E03B7D9B
:103230001A46FB6BD340013BFB64FB6CB3F5803F4C
:1032400004D340F28E212D4812F080FFFB6C9BB21C
:103250003B8307F1140297F843301946786C16F057
:10326000F7FA97F843301946786C16F063F90023A3
:103270003B7401237B740123FB740023BB7407F1AF
:103280000C0297F843301946786C16F073FCBB6C4F
:10329000D3F8903003F10C04BB6C9B6E1846FFF71B
:1032A000AFFB0246164913465B001344DB000B4498
:1032B00010331B68012219462046FFF723FBBB6C25
:1032C0009B6E4FF48071184616F0EAFFBB6C9B6E44
:1032D00001220421184617F03DF8BB6C9B6E0122B9
:1032E0000521184617F036F800BF5437BD4690BD8B
:1032F0004C49040010E0030024E0030070E00300E8
:103300005448040090B597B000AF786039604FF42E
:1033100000337B657B68002B05D140F2AE22A449C7
:10332000A44819F0D5F87B683B653B6D9B6E002B7C
:1033300005D140F2B1229E499F4819F0C9F83B6877
:10334000B3F5007F40F012817B68DB6D7B643B6DE1
:10335000D3F890301B68002B05D14FF42E7294499E
:10336000964819F0B5F83B6DD3F894301B68002BE4
:1033700005D140F2B9228E49914819F0A9F8786830
:10338000FFF7F4FE3B6D0022C3F89C203B6DD3F8A1
:1033900094301B68FB643B6DD3F894305B68BB646E
:1033A000FB6C884A934202D14FF4804301E04FF412
:1033B00000437A6D13437B650121786D12F0E4FFC1
:1033C000BB6CDBB200221946F86C15F0C9F907F1A5
:1033D000140330220021184631F0A0F8012387F8A9
:1033E00041303B6D9B6E04330233BB617B6C1B68C9
:1033F000FB61002387F83E300123BB827B689B6D15
:10340000C3F38F239BB25B089BB2FB82002387F838
:103410003830012387F83930BB6CDBB207F1140276
:103420001946F86C15F0D6FD0123BB600023FB6044
:10343000654B3B61BB6CDBB207F108021946F86CC7
:1034400015F080FD614A3B6DC3F8A020BB695F4A5F
:103450001360FB695D4A5360FB8A1B04BA8A1343FD
:103460005A4A9360584A594B9A6197F838301A462D
:1034700097F839309B001A4397F83E301B021A43E5
:10348000BB689B021A43FB68DB021A43BB681B0341
:1034900013434E4AD361BB694B4A13607B6C1B6874
:1034A0007A68926DC2F38F2292B2520892B213449C
:1034B0001A46454B5A60FB8A1B04BA8A1343424A98
:1034C0009360424A404B9A6197F838301A4697F811
:1034D00039309B001A4397F83E301B021A43BB68F1
:1034E0009B021A43FB68DB021A43BB681B031343AE
:1034F000354AD3613B6DD3F8943003F10C043B6D36
:103500009B6E1846FFF77CFA0246314913465B0072
:103510001344DB000B4414331B6801221946204678
:10352000FFF7F0F90121F86C14F0CCFFBB6CDBB2B3
:1035300003221946F86C14F0F5FFBB6CDBB20222D3
:103540001946F86C15F07EF8BB6CD9B23B6DD3F818
:1035500094301B891A46F86C15F02AFBBB6CDBB261
:1035600001221946F86C15F0FBF87FE03B68B3F5D3
:10357000006F7BD13B6DD3F898301B68002B05D1D1
:1035800040F207320A49134818F0A2FF3B6DD3F806
:1035900098301B68FB643B6DD3F898305B68BB6464
:1035A000FB6C084A934217D14FF4804316E000BFEA
:1035B0006449040010E0030024E0030084E00300F9
:1035C000B8E0030000300540CC8DFF1FEC8DFF1FDD
:1035D00054480400E4E003004FF400437A6D1343C1
:1035E0007B650121786D12F0CFFEBB6CDBB200224F
:1035F0001946F86C15F0B4F807F1140330220021D5
:10360000184630F08BFF012387F841300023BB615F
:103610003B6D9B6E0433FB61002387F83E30012332
:10362000BB820023FB82012387F83830002387F810
:103630003930BB6CDBB207F114021946F86C15F097
:10364000C9FC0121F86C14F03DFFBB6CDBB2032216
:103650001946F86C14F066FFBB6CD9B23B6DD3F819
:1036600098301B891A46F86C15F0A2FA00BF5C3737
:10367000BD4690BD80B582B000AF78607B68002BFE
:1036800005D14FF44A721049104818F021FF7B68A9
:103690009B6E00220221184616F05CFE7B689B6E32
:1036A00000220721184616F055FE7B681B8B03F499
:1036B0000063002B04D07B680421184621F0CEFD66
:1036C00000BF0837BD4680BD7449040010E1030007
:1036D00080B586B000AF78604FF0FF337B617B68C8
:1036E000002B05D140F239321A491B4818F0F0FE80
:1036F0007B689B6E002B05D140F23A321549174882
:1037000018F0E6FE7B683B61FCF78AFEF8603B69D7
:103710009B6DC3F38F239BB25B089BB21A467B68F9
:10372000D3F89C30D31ABB607B680022C3F89C207E
:10373000F868FCF779FEBB68002B07D0BB681B025A
:1037400043F003031946386921F088FD00BF18379C
:10375000BD4680BD9049040060E0030024E0030002
:1037600080B586B000AF78607B68D3F894301B6872
:1037700068331A467B68D3F894305B689B01134426
:103780001B681B0C7B617B689B6DC3F38F239BB213
:103790005B089BB21A467B69D31A3B613B69002BDD
:1037A0001BD0FCF73DFEF8607B68D3F89C303A698B
:1037B000D31ABB607B683A69C3F89C20F868FCF7B1
:1037C00033FEBB68002B08D07A68BB681B0243F04D
:1037D00003031946104621F041FD7B68D3F8903071
:1037E00018687B68D3F890305B68DBB2002219461A
:1037F00015F00AFF7B689B6E4FF48071184616F037
:103800004FFD00BF1837BD4680BD000080B500AF3A
:103810001CF054F80348FFF7FFFB1CF06FF800BFE3
:1038200080BD00BF0482FF1F80B500AF1CF046F8CA
:103830000348FFF70BFC1CF061F800BF80BD00BF20
:103840000482FF1F80B500AF1CF038F80348FFF773
:103850001DFC1CF053F800BF80BD00BF0482FF1F99
:1038600080B500AF1CF02AF80348FFF703FF1CF0F7
:1038700045F800BF80BD00BF0482FF1F80B500AFC8
:103880001CF01CF80348FFF76BFF1CF037F800BF73
:1038900080BD00BF0482FF1F80B500AF1CF00EF892
:1038A0000348FFF715FF1CF029F800BF80BD00BFDB
:1038B0000482FF1F80B500AF1CF000F80348FFF73B
:1038C000ABFB1CF01BF800BF80BD00BFAC82FF1F2C
:1038D00080B500AF1BF0F2FF0348FFF7B7FB1CF009
:1038E0000DF800BF80BD00BFAC82FF1F80B500AFE8
:1038F0001BF0E4FF0348FFF7C9FB1BF0FFFF00BF0D
:1039000080BD00BFAC82FF1F80B500AF1BF0D6FFAB
:103910000348FFF7AFFE1BF0F1FF00BF80BD00BF03
:10392000AC82FF1F80B500AF1BF0C8FF0348FFF754
:1039300017FF1BF0E3FF00BF80BD00BFAC82FF1F7D
:1039400080B500AF1BF0BAFF0348FFF7C1FE1BF0C4
:10395000D5FF00BF80BD00BFAC82FF1F80B400AFA9
:10396000244B0022A3F8A420224BB3F8A43043F444
:1039700000739AB21F4BA3F8A4201E4B1E4AC3F833
:1039800090201C4B1D4AC3F894201A4BB3F8A43066
:1039900043F400639AB2174BA3F8A420154B184ABE
:1039A000C3F89820134B0022A3F84C21114BB3F815
:1039B0004C3143F400739AB20E4BA3F84C210D4BDB
:1039C000104AC3F838210B4B0F4AC3F83C21094B6E
:1039D000B3F84C3143F400639AB2064BA3F84C2180
:1039E000044B0A4AC3F8402100BFBD465DF8047B82
:1039F000704700BF0482FF1F5483FF1F6C83FF1FAB
:103A00008483FF1F9C83FF1FB483FF1FCC83FF1F92
:103A100080B586B000AF00237B610223FB60364A8D
:103A20003B1D92E8030083E80300FFF797FF0023A4
:103A30003B6157E0314A3B69A82101FB03F3134482
:103A400050332F4A1A602D4A3B69A82101FB03F32A
:103A50001344503304333A1D92E8030083E8030013
:103A60003B69002B19D13B69A82202FB03F3234ACF
:103A70009818224A3B69A82101FB03F313446433DD
:103A800019683B69A82202FB03F31C4A134440F265
:103A9000035221F091FB786118E03B69A82202FBF8
:103AA00003F3164A9818154A3B69A82101FB03F352
:103AB0001344643319683B69A82202FB03F30F4ADD
:103AC000134440F2035221F077FB78617B69002BAD
:103AD00005D040F2C7420B490B4818F0F9FC3B698E
:103AE00001333B613B69FA689A42A3D87B69184667
:103AF0001837BD4680BD00BF34E103000482FF1FBC
:103B000084480400B049040020E1030080B483B07D
:103B100000AF78600B467B80002318460C37BD460B
:103B20005DF8047B7047000080B485B000AFF8609A
:103B3000B9607A60BB68C3F10E033E4A82FB031290
:103B40005210DB17D21A13465B0013449B001A462F
:103B5000BB681344DA1E1346DB0013441A011344F6
:103B60000233354A82FB03125210DB17D21A7B68EC
:103B70001A44FB6803F59651BB68C3F10E032D4848
:103B800080FB03C04010DB171B1A0B4440F26D1181
:103B900001FB03F31A44FB6803F59651BB68C3F1BC
:103BA0000E03244880FB03C04010DB171B1A0B4494
:103BB000002B00DA03339B101A44FB6803F596517F
:103BC000BB68C3F10E031B4880FB03C04010DB172A
:103BD0001B1A0B44194981FB03014911DB175B1ABE
:103BE0001A44FB6803F59651BB68C3F10E031148F4
:103BF00080FB03C04010DB171B1A0B440F4981FBED
:103C00000301C911DB17CB1A1344A3F5FA432D3B6B
:103C10000B4A82FB03121A449110DA17891A0A46DA
:103C2000D200521A991A0B4618461437BD465DF851
:103C3000047B7047ABAAAA2A676666661F85EB51AC
:103C40009324499280B485B000AFF860B9607A607F
:103C50003B60002318461437BD465DF8047B70476F
:103C600080B485B000AF786039604FF02043FB60CE
:103C7000FB681A78254B1A70FB680133FB60FB6800
:103C80001A78224B5A70FB680133FB60FB681A7884
:103C90001E4B9A70FB680133FB60FB681A781B4B64
:103CA0001A71FB680133FB60FB681A78174B5A7175
:103CB000FB680133FB60FB681A78144B9A71FB6850
:103CC0000133FB60FB681A78104BDA700F4B9B795D
:103CD00019460E4B5B791A4613461B019B1A9B0033
:103CE000CA180A4B1B7919464FF4616301FB03F3B1
:103CF00013441A467B681A60044BDA783B681A70E2
:103D000000BF1437BD465DF8047B70479885FF1FE0
:103D100080B598B000AFF860B9607A600023FB65A9
:103D2000FB68002B04D145225449554818F0D0FBBC
:103D300007F11C0324220021184617F07FFDBB6801
:103D4000102B03D0BB68112B37D092E07B68BB658A
:103D5000FB6D002B40F08C804FF020433B643B6CAC
:103D60001B7864333B633B6C01333B643B6C1B78D7
:103D7000013BFB623B6C01333B643B6C1B78BB62D9
:103D80003B6C01333B643B6C1B787B623B6C0133C7
:103D90003B643B6C1B783B623B6C01333B643B6C8C
:103DA0001B78FB6107F11C0318462AF01BFE024634
:103DB0000B46B96DC1E900235AE07B68BB65B86D5D
:103DC0002AF000FE78657B6D5B69643B3B657B6D2B
:103DD0001B690133FB647B6DDB68BB644FF02043E0
:103DE0007B647B6D5B69DBB2643BDAB27B6C1A701F
:103DF0007B6C01337B647B6D1B69DBB20133DAB210
:103E00007B6C1A707B6C01337B647B6DDB68DAB290
:103E10007B6C1A707B6C01337B6419F053FA7B6DF9
:103E20009B68DAB27B6C1A707B6C01337B647B6DB0
:103E30005B68DAB27B6C1A707B6C01337B647B6DE0
:103E40001B68DAB27B6C1A707B6C01337B64BA6CD2
:103E5000F96C386DFFF768FE0346DBB20133DAB266
:103E60007B6C1A70074B01221A6019F041FA00E0CE
:103E700000BF002318466037BD4680BDC44904001A
:103E80003CE103000C8EFF1F80B500AF0F4B0522F5
:103E90001A750E4B00225A620C4B0D4A9A620B4B5C
:103EA0000022DA62094B0B4A1A63084B00225A635C
:103EB000064B094A9A63054B0022DA64032207493C
:103EC00002481BF0A5FF0023184680BD108EFF1F7F
:103ED0000D3B0000453C0000113D00004CE103009B
:103EE00080B584B000AF78600023FB607B68164A21
:103EF000934203D0154A93420DD01BE000232122A8
:103F00000821002017F0C8FA0023202204210020F5
:103F100017F0C2FA12E0002325224FF4806100203E
:103F200017F0BAFA002324224FF40071002017F092
:103F3000B3FA03E04FF0FF33FB6000BFFB681846A5
:103F40001037BD4680BD00BF00D0014000D4014005
:103F50002DE9B0039DB000AFF860B9607A603B60B6
:103F60004FF000024FF00003C7E918237B689B085D
:103F7000FB6666E007F10C033B633B6B1B681B6849
:103F8000FB623B6B1B681A1D3B6B1A60FB6A184691
:103F900007F108037B637B6B1B681B68BB627B6B51
:103FA0001B681A1D7B6B1A60BB6A1946D7E9182378
:103FB00078643964C7E90E23D7E90E23C7E90823DB
:103FC0003A6A7B6A796C386CC1FBC0233A627B62C7
:103FD000D7E90823C7E9182307F10C03BB64BB6CBE
:103FE0001B681B68FB61BB6C1B681A1DBB6C1A60ED
:103FF000FB69184607F10803FB64FB6C1B681B6830
:10400000BB61FB6C1B681A1DFB6C1A60BB6919460F
:10401000D7E91823F865B965C7E91423D7E914234C
:10402000C7E904233A697B69F96DB86DC1FBC02308
:104030003A617B61D7E90423C7E91823FB6E013B92
:10404000FB66FB6E002B95D17B6803F00303FB66D8
:104050001AE0FB689A1CFA60B3F900301946BB6895
:104060009A1CBA60B3F9003001FB03F3DA171C465F
:104070001546D7E9182312EB040843EB0509C7E9F5
:104080001889FB6E013BFB66FB6E002BE1D13968A2
:10409000D7E91823C1E9002300BF7437BD46BDE846
:1040A000B003704780B49BB000AFF8607A603B60AB
:1040B0000B467B81B7F90A309AB2B7F90A301B0474
:1040C00013433B663B689B087B6650E007F10C039B
:1040D0003B633B6B1B681B683B623B6B1B681A1D99
:1040E0003B6B1A603B6A1A463B6EFA63BB63FB6B21
:1040F000BA6B93FA12F37B637B6B1A463B1D7B64AE
:104100003A643B6CFB617B6C1B68FA691A607B6CE0
:104110001B681A1D7B6C1A6000BF07F10C03BB649F
:10412000BB6C1B681B68BB61BB6C1B681A1DBB6C3E
:104130001A60BB691A463B6E7A653B657B6D3A6DCA
:1041400093FA12F3FB64FB6C1A463B1DFB65BA65E0
:10415000BB6D7B61FB6D1B687A691A60FB6D1B6828
:104160001A1DFB6D1A6000BF7B6E013B7B667B6E88
:10417000002BABD13B6803F003037B6617E0FB68C1
:104180009A1CFA60B3F900301A46B7F90A30FA629D
:10419000BB62FB6ABA6A93FA12F37B62796A7B6844
:1041A0009A1C7A600AB21A807B6E013B7B667B6E3A
:1041B000002BE4D100BF00BF6C37BD465DF8047B27
:1041C000704780B49FB000AFF8607A603B600B46E8
:1041D000FB72FB7A23F07F0387F873303B689B0800
:1041E0007B6797F87330002B40F0D38070E0FB685A
:1041F0009A1CFA601B88A7F87030FB689A1CFA605A
:104200001B88A7F86E30B7F9702097F90B3002FAC7
:1042100003F3BB66BB6E03F30F037B667B6E9AB240
:10422000B7F96E1097F90B3001FA03F33B663B6E5A
:1042300003F30F03FB65FB6D1B0413431A463B1D81
:10424000BB637A637B6BBB61BB6B1B68BA691A602B
:10425000BB6B1B681A1DBB6B1A6000BFFB689A1C06
:10426000FA601B88A7F87030FB689A1CFA601B88FC
:10427000A7F86E30B7F9702097F90B3002FA03F304
:10428000BB65BB6D03F30F037B657B6D9AB2B7F91A
:104290006E1097F90B3001FA03F33B653B6D03F3A6
:1042A0000F03FB64FB6C1B0413431A463B1D3B646A
:1042B000FA63FB6B7B613B6C1B687A691A603B6C31
:1042C0001B681A1D3B6C1A6000BF7B6F013B7B674C
:1042D0007B6F002B8BD15FE0FB689A1CFA601B8818
:1042E000A7F87030FB689A1CFA601B88A7F86E303C
:1042F000B7F9702097F90B305B4242FA03F39AB298
:10430000B7F96E1097F90B305B4241FA03F31B04C7
:1043100013431A463B1DBB627A627B6A3B62BB6AEF
:104320001B683A6A1A60BB6A1B681A1DBB6A1A606E
:1043300000BFFB689A1CFA601B88A7F87030FB6806
:104340009A1CFA601B88A7F86E30B7F9702097F9AD
:104350000B305B4242FA03F39AB2B7F96E1097F949
:104360000B305B4241FA03F31B0413431A463B1D17
:104370003B63FA62FB6AFB613B6B1B68FA691A607C
:104380003B6B1B681A1D3B6B1A6000BF7B6F013BC8
:104390007B677B6F002B9FD13B6803F003037B6738
:1043A00097F87330002B2FD117E0FB689A1CFA6046
:1043B000B3F900301A4697F90B3002FA03F3BB64E5
:1043C000BB6C03F30F037B64796C7B689A1C7A6087
:1043D0000AB21A807B6F013B7B677B6F002BE4D1B5
:1043E00015E0FB689A1CFA60B3F900301A4697F999
:1043F0000B305B4242FA03F17B689A1C7A600AB286
:104400001A807B6F013B7B677B6F002BE9D100BF7C
:104410007C37BD465DF8047B704780B4A1B000AF27
:10442000F860B9607A603B603B689B08FB676EE0B0
:1044300007F10C037B637B6B1B681B687B627B6BE8
:104440001B681A1D7B6B1A607B6ABB6707F10C0344
:10445000BB63BB6B1B681B683B62BB6B1B681A1D95
:10446000BB6B1A603B6A7B6707F10803FB63FB6B5E
:104470001B681B68FB61FB6B1B681A1DFB6B1A60DA
:10448000FB693B6707F108033B643B6C1B681B68D7
:10449000BB613B6C1B681A1D3B6C1A60BB69FB66F9
:1044A000BA6F3B6FFA64BB64FB6CBA6CD3FA12F35D
:1044B0007B647B6C1A463B1D7B653A653B6D7B617B
:1044C0007B6D1B687A691A607B6D1B681A1D7B6D9A
:1044D0001A6000BF7A6FFB6E3A66FB653B6EFA6D41
:1044E000D3FA12F3BB65BB6D1A463B1DBB667A66F9
:1044F0007B6E3B61BB6E1B683A691A60BB6E1B68C2
:104500001A1DBB6E1A6000BFFB6F013BFB67FB6FA0
:10451000002B8DD13B6803F00303FB671AE0FB68B7
:104520009A1CFA60B3F900301946BB689A1CBA604D
:10453000B3F900303963FB623B6BFA6AD3FA12F3CA
:10454000BB62B96A7B689A1C7A600AB21A80FB6FF8
:10455000013BFB67FB6F002BE1D100BF00BF84373D
:10456000BD465DF8047B704780B48BB000AFF86047
:10457000B9607A603B600023FB61FB689A1CFA60BB
:104580001B88FB840023BB61BB68013B9B083B622B
:1045900045E0FB689A1CFA601B88FB82B7F926206D
:1045A000B7F916309A4204DAFB8AFB84BB690133FF
:1045B000FB61FB689A1CFA601B88FB82B7F9262016
:1045C000B7F916309A4204DAFB8AFB84BB690233DE
:1045D000FB61FB689A1CFA601B88FB82B7F92620F6
:1045E000B7F916309A4204DAFB8AFB84BB690333BD
:1045F000FB61FB689A1CFA601B88FB82B7F92620D6
:10460000B7F916309A4204DAFB8AFB84BB6904339B
:10461000FB61BB690433BB613B6A013B3B623B6AA4
:10462000002BB6D1BB68013B03F003033B6213E0F0
:10463000FB689A1CFA601B88FB82B7F92620B7F941
:1046400016309A4205DAFB8AFB84BA683B6AD31AB1
:10465000FB613B6A013B3B623B6A002BE8D17B6814
:10466000FA8C1A803B68FA691A6000BF2C37BD4685
:104670005DF8047B704780B48BB000AFF860B96020
:104680007A603B600023FB61FB681A1DFA601B68BF
:104690007B620023BB61BB68013B9B083B623DE042
:1046A000FB681A1DFA601B687B617A6A7B699A4213
:1046B00004DA7B697B62BB690133FB61FB681A1D0D
:1046C000FA601B687B617A6A7B699A4204DA7B69CB
:1046D0007B62BB690233FB61FB681A1DFA601B68D1
:1046E0007B617A6A7B699A4204DA7B697B62BB6987
:1046F0000333FB61FB681A1DFA601B687B617A6AF1
:104700007B699A4204DA7B697B62BB690433FB6193
:10471000BB690433BB613B6A013B3B623B6A002BD4
:10472000BED1BB68013B03F003033B6211E0FB68B1
:104730001A1DFA601B687B617A6A7B699A4205DA06
:104740007B697B62BA683B6AD31AFB613B6A013BB7
:104750003B623B6A002BEAD17B687A6A1A603B684D
:10476000FA691A6000BF2C37BD465DF8047B7047BC
:104770002DE9B04F98B000AFF864B9647A644FF097
:1047800000024FF00003C7E91423BB6C9B08FB65D4
:104790004EE0FA6C131DFB641368DA17BB63FA630F
:1047A000D7E91423B96B5118B961F96B4B41FB611F
:1047B000D7E90623C7E91423FA6C131DFB641368B9
:1047C000DA173B637A63D7E91423396B51183961DF
:1047D000796B4B417B61D7E90423C7E91423FA6C59
:1047E000131DFB641368DA17BB62FA62D7E914235E
:1047F000B96A5118B960F96A4B41FB60D7E90223E5
:10480000C7E91423FA6C131DFB641368DA179A4680
:104810009346D7E9142312EB0A01396043EB0B03EB
:104820007B60D7E90023C7E91423FB6D013BFB65DF
:10483000FB6D002BADD1BB6C03F00303FB6511E0F6
:10484000FB6C1A1DFA641B68DA171C461546D7E97B
:10485000142312EB040843EB0509C7E91489FB6D27
:10486000013BFB65FB6D002BEAD1BB6C00223B6278
:104870007A62D7E90823D7E91401FCF745FE02461E
:104880000B467B6C1A6000BF6037BD46BDE8B08F39
:1048900080B48BB000AFF860B9607A603B600023F1
:1048A000FB61FB689A1CFA601B88FB840023BB61D8
:1048B000BB68013B9B083B6245E0FB689A1CFA60C1
:1048C0001B88FB82B7F92620B7F916309A4204DD1F
:1048D000FB8AFB84BB690133FB61FB689A1CFA60AD
:1048E0001B88FB82B7F92620B7F916309A4204DDFF
:1048F000FB8AFB84BB690233FB61FB689A1CFA608C
:104900001B88FB82B7F92620B7F916309A4204DDDE
:10491000FB8AFB84BB690333FB61FB689A1CFA606A
:104920001B88FB82B7F92620B7F916309A4204DDBE
:10493000FB8AFB84BB690433FB61BB690433BB6145
:104940003B6A013B3B623B6A002BB6D1BB68013B33
:1049500003F003033B6213E0FB689A1CFA601B88B8
:10496000FB82B7F92620B7F916309A4205DDFB8A9B
:10497000FB84BA683B6AD31AFB613B6A013B3B622A
:104980003B6A002BE8D17B68FA8C1A803B68FA6995
:104990001A6000BF2C37BD465DF8047B704780B5B8
:1049A000A0B000AFF860B9607A607B689B08FB67D5
:1049B0008AE007F10C037B637B6B1B681B68FB6160
:1049C0007B6B1B681A1D7B6B1A60FB69BB67BA6F38
:1049D000BB6F3A64FB633B6CFA6B23FB02F3BB6374
:1049E000BB6B7B677B6F5B1418B2BB689A1CBA60A9
:1049F000194604F005FB07F10C037B647B6C1B6814
:104A00001B68BB617B6C1B681A1D7B6C1A60BB69E1
:104A1000BB67BA6FBB6F3A65FB643B6DFA6C23FBF7
:104A200002F3BB64BB6C7B677B6F5B1418B2BB6823
:104A30009A1CBA60194604F0E3FA07F10C037B658F
:104A40007B6D1B681B687B617B6D1B681A1D7B6D12
:104A50001A607B69BB67BA6FBB6F3A66FB653B6EDA
:104A6000FA6D23FB02F3BB65BB6D7B677B6F5B1449
:104A700018B2BB689A1CBA60194604F0C1FA07F173
:104A80000C037B667B6E1B681B683B617B6E1B683F
:104A90001A1D7B6E1A603B69BB67BA6FBB6F3A67C2
:104AA000FB663B6FFA6E23FB02F3BB66BB6E7B6754
:104AB0007B6F5B1418B2BB689A1CBA60194604F08D
:104AC0009FFAFB6F013BFB67FB6F002B7FF471AF1D
:104AD0007B6803F00303FB6724E007F10C037B62B0
:104AE0007B6A1B681B683B627B6A1B681A1D7B6ABA
:104AF0001A603B6ABB67BA6FBB6F3A63FB623B6B82
:104B0000FA6A23FB02F3BB62BB6A7B677B6F5B14B1
:104B100018B2BB689A1CBA60194604F071FAFB6FB0
:104B2000013BFB67FB6F002BD7D100BF00BF803775
:104B3000BD4680BD2DE9B04FC0B000AFC7F8E4005E
:104B4000C7F8E010C7F8DC20D7F8DC309B08C7F8BE
:104B5000FC300EE2D7F8E420131DC7F8E4301368E8
:104B6000C7F8F830D7F8E420131DC7F8E43013680D
:104B7000C7F8F430D7F8F830DA17C7F89830C7F824
:104B80009C20D7F8F830DA17C7F89030C7F894208F
:104B9000D7E926010B46D7F8902002FB03F2D7F89D
:104BA0009430C7E92601014601FB03F31344D7F80B
:104BB0009820D7F89010A2FB0112C7F8D4200A461B
:104BC000C7F8D020D7F8D4201344C7F8D4304FF01A
:104BD00000024FF00003D7F8D4104A10D7F8D410D1
:104BE000CB171346C7F8F030D7F8F430DA17C7F808
:104BF0008830C7F88C20D7F8F430DA17C7F880303F
:104C0000C7F88420D7E922010B46D7F8802002FBA1
:104C100003F2D7F88430C7E92201014601FB03F310
:104C20001344D7F88820D7F88010A2FB0112C7F8E8
:104C3000CC200A46C7F8C820D7F8CC201344C7F8C0
:104C4000CC304FF000024FF00003D7F8CC104A10E0
:104C5000D7F8CC10CB171346C7F8EC30D7F8F020B4
:104C6000D7F8EC30D018D7F8E020131DC7F8E030A3
:104C7000114604F0A3FAD7F8E420131DC7F8E43076
:104C80001368C7F8F830D7F8E420131DC7F8E430EC
:104C90001368C7F8F430D7F8F830DA17BB67FA674B
:104CA000D7F8F830DA173B677A67D7E91E010B4669
:104CB0003A6F02FB03F27B6FC7E91E01014601FB5D
:104CC00003F31344BA6F396FA2FB0112C7F8C42073
:104CD0000A46C7F8C020D7F8C4201344C7F8C43028
:104CE0004FF000024FF00003D7F8C4104A10D7F875
:104CF000C410CB171346C7F8F030D7F8F430DA17E2
:104D0000BB66FA66D7F8F430DA173B667A66D7E9FD
:104D10001A010B463A6E02FB03F27B6EC7E91A01D9
:104D2000014601FB03F31344BA6E396EA2FB011274
:104D3000C7F8BC200A46C7F8B820D7F8BC201344EF
:104D4000C7F8BC304FF000024FF00003D7F8BC109A
:104D50004A10D7F8BC10CB171346C7F8EC30D7F879
:104D6000F020D7F8EC30D018D7F8E020131DC7F8A2
:104D7000E030114604F022FAD7F8E420131DC7F8FA
:104D8000E4301368C7F8F830D7F8E420131DC7F8EB
:104D9000E4301368C7F8F430D7F8F830DA17BB6599
:104DA000FA65D7F8F830DA173B657A65D7E9160166
:104DB0000B463A6D02FB03F27B6DC7E91601014613
:104DC00001FB03F31344BA6D396DA2FB0112C7F85E
:104DD000B4200A46C7F8B020D7F8B4201344C7F867
:104DE000B4304FF000024FF00003D7F8B4104A106F
:104DF000D7F8B410CB171346C7F8F030D7F8F43013
:104E0000DA17BB64FA64D7F8F430DA173B647A64D3
:104E1000D7E912010B463A6C02FB03F27B6CC7E93F
:104E20001201014601FB03F31344BA6C396CA2FB77
:104E30000112C7F8AC200A46C7F8A820D7F8AC2062
:104E40001344C7F8AC304FF000024FF00003D7F81E
:104E5000AC104A10D7F8AC10CB171346C7F8EC309B
:104E6000D7F8F020D7F8EC30D018D7F8E020131D91
:104E7000C7F8E030114604F0A1F9D7F8E420131D7B
:104E8000C7F8E4301368C7F8F830D7F8E420131DEA
:104E9000C7F8E4301368C7F8F430D7F8F830DA17F9
:104EA000BB63FA63D7F8F830DA173B637A63D7E964
:104EB0000E010B463A6B02FB03F27B6BC7E90E0156
:104EC000014601FB03F31344BA6B396BA2FB0112D9
:104ED000C7F8A4200A46C7F8A020D7F8A420134496
:104EE000C7F8A4304FF000024FF00003D7F8A41029
:104EF0004A10D7F8A410CB171346C7F8F030D7F8EC
:104F0000F430DA17BB62FA62D7F8F430DA173B6292
:104F10007A62D7E90A010B463A6A02FB03F27B6A1E
:104F2000C7E90A01014601FB03F31344BA6A396A6F
:104F3000A2FB01AB5B449B464FF000024FF0000325
:104F40004FEA6B024FEAEB731346C7F8EC30D7F821
:104F5000F020D7F8EC30D018D7F8E020131DC7F8B0
:104F6000E030114604F02AF9D7F8FC30013BC7F8CD
:104F7000FC30D7F8FC30002B7FF4ECADD7F8DC30F8
:104F800003F00303C7F8FC3077E0D7F8E4301A1DCC
:104F9000C7F8E4201B68C7F8F830D7F8E4301A1DCA
:104FA000C7F8E4201B68C7F8F430D7F8F830DA17F0
:104FB000BB60FA60D7F8F830DA17BB61FA61D7E95D
:104FC00002010B46D7E906AB524602FB03F2C7E9E2
:104FD00006AB5B4682468B46514601FB03F3134406
:104FE0005246B969A2FB01452B441D464FF0000211
:104FF0004FF000036A10EB171346C7F8F030D7F8EC
:10500000F430DA173B607A60D7F8F430DA173B6196
:105010007A61D7E900010B46D7E904AB524602FB9F
:1050200003F2C7E904AB5B4682468B46514601FB5F
:1050300003F3134452463969A2FB01894B44994654
:105040004FF000024FF000034FEA69024FEAE973A4
:105050001346C7F8EC30D7F8F020D7F8EC30D0186A
:10506000D7F8E020131DC7F8E030114604F0A6F889
:10507000D7F8FC30013BC7F8FC30D7F8FC30002BE8
:1050800083D100BF00BF07F58077BD46BDE8B08F74
:1050900080B487B000AFF8600B467A607B81002354
:1050A000FB8241E0FB8A5B007A6813441B889B0803
:1050B000BB82FB8A01335B007A6813441B889B0820
:1050C0007B82BB8A5B00FA6813441B883B827B8A25
:1050D0005B00FA681A44BB8A5B00F9680B441288CB
:1050E0001A807B8A5B00FA6813443A8A1A80BB8A6A
:1050F00001335B00FA6813441B883B827B8A0133CF
:105100005B00FA681A44BB8A01335B00F9680B4400
:1051100012881A807B8A01335B00FA6813443A8A4A
:105120001A80FB8A0233FB82FA8A7B899A42B9D3BE
:1051300000BF00BF1C37BD465DF8047B704780B5DB
:1051400086B000AFF860B96011461A460B46FB7195
:105150001346BB71FB681B887B61FB79012B4CD12B
:105160007B69B3F5805F38D07B69B3F5805F00F26F
:105170008F807B69B3F5006F37D07B69B3F5006F23
:1051800000F286807B69B3F5806F26D07B69B3F52A
:10519000806F7DD87B69B3F5007F26D07B69B3F53E
:1051A000007F75D87B69B3F5807F16D07B69B3F536
:1051B000807F6DD87B69802B17D07B69802B67D867
:1051C0007B69402B09D07B69402B61D87B69102B10
:1051D00003D07B69202B08D05AE0FB685A68012372
:1051E0007969B86801F0D7FF52E0FB685B681A463E
:1051F0007969B86800F0A8F94AE07B69B3F5805F87
:1052000036D07B69B3F5805F42D87B69B3F5006F18
:1052100036D07B69B3F5006F3AD87B69B3F5806F00
:1052200026D07B69B3F5806F32D87B69B3F5007FF8
:1052300026D07B69B3F5007F2AD87B69B3F5807FE0
:1052400016D07B69B3F5807F22D87B69802B17D07D
:105250007B69802B1CD87B69402B09D07B69402B54
:1052600016D87B69102B03D07B69202B08D00FE068
:10527000FB685A6801237969B86800F0B2FA07E060
:10528000FB685B681A467969B86800F010F800BFDF
:10529000BB79002B07D0FB689989FB689B681A468D
:1052A000B868FFF7F5FE00BF1837BD4680BD80B572
:1052B000B0B000AFF860B9607A607B683B63FB68B0
:1052C000FB62BB685B00FA681344BB62BB685B08A7
:1052D000C7F8B830D7F8B830C7F8BC30ACE007F141
:1052E00030037B637B6B1B681B687B627B6B1B687B
:1052F0001A1D7B6B1A607B6AC7F8AC30FB6ABB6314
:10530000BB6B1B683B623B6AC7F8A830D7F8A83074
:105310007B6400233B647B6C3A6C93FA22F3FB635F
:10532000FB6BC7F8A830BB6ABB64BB6C1B68FB6136
:10533000FB69C7F8A430D7F8A4307B6500233B6530
:105340007B6D3A6D93FA22F3FB64FB6CC7F8A430D3
:10535000D7F8A820D7F8A4303A66FB653B6EFA6D03
:10536000D3FA12F3BB65BB6DC7F8A030D7F8A820FD
:10537000D7F8A430FA66BB66FB6EBA6E93FA22F3D6
:105380007B667B6E1A4607F12C037B673A673B6F9F
:10539000BB617B6F1B68BA691A607B6F1B681A1D43
:1053A0007B6F1A6000BFD7F8AC20D7F8A030C7F8E1
:1053B0008020FB67D7F88030FA6F23FB02F3BB67CE
:1053C000BB6F1B0CC7F89C30D7F8AC20D7F8A030C7
:1053D000C7F88C20C7F88830D7F88C30D7F88820E9
:1053E00043FB12F3C7F88430D7F88430C7F89830FD
:1053F000D7F89C309AB2D7F898301B0C1B04134393
:105400001A4607F12803C7F89430C7F89020D7F858
:1054100090307B61D7F894301B687A691A60D7F8AE
:1054200094301B681A1DD7F894301A6000BFD7F863
:10543000BC30013BC7F8BC30D7F8BC30002B7FF440
:105440004EAF02237A68D7F8B810F86800F0C9F9AF
:10545000BB685B00FA68D01802237A68D7F8B810E6
:1054600000F0BFF9BB685B08C7F8B8300023C7F885
:10547000BC305EE0D7F8BC30DB00FA6813441B8810
:10548000A7F8B630D7F8BC30DB000233FA68134413
:105490001B88A7F8B430D7F8BC30DB000433FA68B7
:1054A00013441B88A7F8B230D7F8BC30DB000633B2
:1054B000FA6813441B88A7F8B030B7F9B6305B0020
:1054C000A7F8B630B7F9B4305B00A7F8B430B7F935
:1054D000B2305B00A7F8B230B7F9B0305B00A7F884
:1054E000B030D7F8BC30DB00FA681344B7F8B62008
:1054F0001A80D7F8BC30DB000233FA681344B7F8DF
:10550000B4201A80D7F8BC30DB000433FA681344A7
:10551000B7F8B2201A80D7F8BC30DB000633FA683F
:105520001344B7F8B0201A80D7F8BC300133C7F85D
:10553000BC30D7F8BC20D7F8B8309A429AD300BF15
:1055400000BFC037BD4680BD80B5B0B000AFF860C9
:10555000B9607A607B683B63FB68FB62BB685B0099
:10556000FA681344BB62BB685B08C7F8B830D7F869
:10557000B830C7F8BC30ACE007F130037B637B6B1D
:105580001B681B687B627B6B1B681A1D7B6B1A6038
:105590007B6AC7F8AC30FB6ABB63BB6B1B683B62C2
:1055A0003B6AC7F8A830D7F8A8307B6400233B6477
:1055B0007B6C3A6C93FA22F3FB63FB6BC7F8A83061
:1055C000BB6ABB64BB6C1B68FB61FB69C7F8A4309A
:1055D000D7F8A4307B6500233B657B6D3A6D93FA69
:1055E00022F3FB64FB6CC7F8A430D7F8A820D7F8E7
:1055F000A4303A66FB653B6EFA6DD3FA12F3BB65D5
:10560000BB6DC7F8A030D7F8A820D7F8A430FA6649
:10561000BB66FB6EBA6E93FA22F37B667B6E1A460C
:1056200007F12C037B673A673B6FBB617B6F1B689D
:10563000BA691A607B6F1B681A1D7B6F1A6000BF06
:10564000D7F8AC20D7F8A030C7F88020FB67D7F890
:105650008030FA6F43FB02F3BB67BB6F1B0CC7F8CC
:105660009C30D7F8AC20D7F8A030C7F88C20C7F80A
:105670008830D7F88C30D7F8882023FB12F3C7F88E
:105680008430D7F88430C7F89830D7F89C309AB275
:10569000D7F898301B0C1B0413431A4607F1280354
:1056A000C7F89430C7F89020D7F890307B61D7F8CE
:1056B00094301B687A691A60D7F894301B681A1DF9
:1056C000D7F894301A6000BFD7F8BC30013BC7F858
:1056D000BC30D7F8BC30002B7FF44EAF02237A6881
:1056E000D7F8B810F86801F056FDBB685B00FA689F
:1056F000D01802237A68D7F8B81001F04CFDBB68C7
:105700005B08C7F8B8300023C7F8BC305EE0D7F8B4
:10571000BC30DB00FA6813441B88A7F8B630D7F812
:10572000BC30DB000233FA6813441B88A7F8B4309E
:10573000D7F8BC30DB000433FA6813441B88A7F8A1
:10574000B230D7F8BC30DB000633FA6813441B884C
:10575000A7F8B030B7F9B6305B00A7F8B630B7F9A4
:10576000B4305B00A7F8B430B7F9B2305B00A7F8EB
:10577000B230B7F9B0305B00A7F8B030D7F8BC3022
:10578000DB00FA681344B7F8B6201A80D7F8BC30AB
:10579000DB000233FA681344B7F8B4201A80D7F854
:1057A000BC30DB000433FA681344B7F8B2201A8027
:1057B000D7F8BC30DB000633FA681344B7F8B020E2
:1057C0001A80D7F8BC300133C7F8BC30D7F8BC20FA
:1057D000D7F8B8309A429AD300BF00BFC037BD4651
:1057E00080BD90B4ADF5816D00AF07F58164A4F57F
:1057F0007F74206007F58160A0F58060016007F587
:105800008161A1F204410A6007F58162A2F581621B
:10581000136007F58163A3F580631B68C7F8043440
:10582000D7F80434C7F8F033D7F804349B08C7F826
:1058300004340023C7F80034D7F80434C7F8F83329
:1058400007F58163A3F5597307F58162A2F57F72AD
:1058500012681A6007F58163A3F559731A68D7F8BF
:1058600004349B001A4407F58163A3F55A731A6048
:1058700007F58163A3F55A731A68D7F804349B00BF
:105880001A4407F58163A3F55B731A6007F581631A
:10589000A3F55B731A68D7F804349B001A4407F524
:1058A0008163A3F55C731A6007F58163A3F55973EF
:1058B0001A6807F58163A3F5E4731A6007F581633D
:1058C000A3F5E4731B681B681A4607F58163A3F50B
:1058D00072731A6007F58163A3F572731B68C7F8CA
:1058E000EC33D7F8EC2307F58163A3F5DE731A6078
:1058F00007F58163A3F5E07300221A6007F5816361
:10590000A3F5DE731B6807F58162A2F5E0721268E9
:1059100093FA22F207F58163A3F5E2731A6007F5A3
:105920008163A3F5E2731B68C7F8EC33D7F8EC2367
:1059300007F58163A3F5D8731A6007F58163A3F5B2
:10594000DA7300221A6007F58163A3F5D8731B6828
:1059500007F58162A2F5DA72126893FA22F207F56E
:105960008163A3F5DC731A6007F58163A3F5DC732B
:105970001B68C7F8EC3307F58163A3F55B731A68FE
:1059800007F58163A3F5D6731A6007F58163A3F564
:10599000D6731B681B681A4607F58163A3F57373FA
:1059A0001A6007F58163A3F573731B68C7F8E833C2
:1059B000D7F8E82307F58163A3F5D0731A6007F5DC
:1059C0008163A3F5D27300221A6007F58163A3F502
:1059D000D0731B6807F58162A2F5D272126893FA40
:1059E00022F207F58163A3F5D4731A6007F581638A
:1059F000A3F5D4731B68C7F8E833D7F8E82307F595
:105A00008163A3F5CA731A6007F58163A3F5CC73AC
:105A100000221A6007F58163A3F5CA731B6807F5B6
:105A20008162A2F5CC72126893FA22F207F58163C3
:105A3000A3F5CE731A6007F58163A3F5CE731B68D7
:105A4000C7F8E833D7F8EC13D7F8E82307F58163F4
:105A5000A3F5C473196007F58163A3F5C6731A60D3
:105A600007F58163A3F5C4731B6807F58162A2F58E
:105A7000C672126893FA12F207F58163A3F5C87330
:105A80001A6007F58163A3F5C8731B68C7F8E43390
:105A9000D7F8EC13D7F8E82307F58163A3F5BE73B5
:105AA000196007F58163A3F5C0731A6007F5816378
:105AB000A3F5BE731B6807F58162A2F5C072126878
:105AC000D3FA12F207F58163A3F5C2731A6007F5E2
:105AD0008163A3F5C2731B68C7F8E83307F58163D8
